{
  "contractName": "Bank",
  "abi": [
    {
      "constant": false,
      "inputs": [],
      "name": "deposit",
      "outputs": [],
      "payable": true,
      "stateMutability": "payable",
      "type": "function"
    },
    {
      "constant": false,
      "inputs": [
        {
          "name": "amount",
          "type": "uint256"
        }
      ],
      "name": "withdraw",
      "outputs": [],
      "payable": false,
      "stateMutability": "nonpayable",
      "type": "function"
    },
    {
      "constant": true,
      "inputs": [],
      "name": "balance",
      "outputs": [
        {
          "name": "",
          "type": "uint256"
        }
      ],
      "payable": false,
      "stateMutability": "view",
      "type": "function"
    },
    {
      "constant": true,
      "inputs": [],
      "name": "getTotalBalance",
      "outputs": [
        {
          "name": "",
          "type": "uint256"
        }
      ],
      "payable": false,
      "stateMutability": "view",
      "type": "function"
    }
  ],
  "bytecode": "0x608060405234801561001057600080fd5b5061033d806100206000396000f3fe60806040526004361061003f5760003560e01c806312b58349146100445780632e1a7d4d1461006f578063b69ef8a8146100aa578063d0e30db0146100d5575b600080fd5b34801561005057600080fd5b506100596100df565b6040518082815260200191505060405180910390f35b34801561007b57600080fd5b506100a86004803603602081101561009257600080fd5b81019080803590602001909291905050506100fe565b005b3480156100b657600080fd5b506100bf61027d565b6040518082815260200191505060405180910390f35b6100dd6102c3565b005b60003073ffffffffffffffffffffffffffffffffffffffff1631905090565b806000803373ffffffffffffffffffffffffffffffffffffffff1673ffffffffffffffffffffffffffffffffffffffff1681526020019081526020016000205410610275573373ffffffffffffffffffffffffffffffffffffffff168160405160200180806020018281038252600081526020016020019150506040516020818303038152906040526040518082805190602001908083835b602083106101ba5780518252602082019150602081019050602083039250610197565b6001836020036101000a03801982511681845116808217855250505050505090500191505060006040518083038185875af1925050503d806000811461021c576040519150601f19603f3d011682016040523d82523d6000602084013e610221565b606091505b505050806000803373ffffffffffffffffffffffffffffffffffffffff1673ffffffffffffffffffffffffffffffffffffffff1681526020019081526020016000206000828254039250508190555061027a565b600080fd5b50565b60008060003373ffffffffffffffffffffffffffffffffffffffff1673ffffffffffffffffffffffffffffffffffffffff16815260200190815260200160002054905090565b346000803373ffffffffffffffffffffffffffffffffffffffff1673ffffffffffffffffffffffffffffffffffffffff1681526020019081526020016000206000828254019250508190555056fea165627a7a723058200d5f4e32bd7bad44667071b934ce4c92eaa8fe71131359ff9d3fd4267321501b0029",
  "source": "pragma solidity ^0.5.8;\n\ncontract Bank {\n   mapping (address=>uint) balances;\n\n\tfunction deposit() public payable {\n\t   balances[msg.sender] += msg.value;\n\t}\n\n\tfunction withdraw(uint amount) public {\n\t   if(balances[msg.sender] >= amount) {\n\t       // send value using low-level call \n\t       // if the sender has enough balance\n\t      msg.sender.call.value(amount)(abi.encode(\"\"));\n\t      balances[msg.sender] -= amount;\n\t   }\n\t   else {\n\t       // revert otherwise\n\t       revert();\n\t   }\n\t}\n\n\tfunction balance() public view returns(uint) {\n\t   return balances[msg.sender];\n\t }\n\t \n\tfunction getTotalBalance() public view returns (uint) {\n\t    return address(this).balance;\n\t}\n}",
  "sourcePath": "/Users/Trouser/Desktop/projects/fyp/local_blkchain/truffle/contracts/Bank.sol",
  "compiler": {
    "name": "solc",
    "version": "0.5.8+commit.23d335f2.Emscripten.clang"
  },
  "schemaVersion": "3.0.13",
  "updatedAt": "2019-09-03T11:37:31.737Z",
  "devdoc": {
    "methods": {}
  },
  "userdoc": {
    "methods": {}
  }
}